{
  "contractName": "auction",
  "abi": [
    {
      "inputs": [],
      "stateMutability": "nonpayable",
      "type": "constructor"
    },
    {
      "anonymous": false,
      "inputs": [
        {
          "indexed": true,
          "internalType": "address",
          "name": "from",
          "type": "address"
        },
        {
          "indexed": true,
          "internalType": "address",
          "name": "to",
          "type": "address"
        },
        {
          "indexed": true,
          "internalType": "uint256",
          "name": "tokenId",
          "type": "uint256"
        }
      ],
      "name": "Transfer",
      "type": "event"
    },
    {
      "inputs": [
        {
          "internalType": "uint256",
          "name": "",
          "type": "uint256"
        }
      ],
      "name": "AuctionList",
      "outputs": [
        {
          "internalType": "uint256",
          "name": "ItemId",
          "type": "uint256"
        },
        {
          "internalType": "address payable",
          "name": "Owner",
          "type": "address"
        },
        {
          "internalType": "uint256",
          "name": "BidAmount",
          "type": "uint256"
        },
        {
          "internalType": "address payable",
          "name": "HighestBidder",
          "type": "address"
        }
      ],
      "stateMutability": "view",
      "type": "function"
    },
    {
      "inputs": [
        {
          "internalType": "uint256",
          "name": "_id",
          "type": "uint256"
        },
        {
          "internalType": "uint256",
          "name": "_price",
          "type": "uint256"
        }
      ],
      "name": "MakeBid",
      "outputs": [],
      "stateMutability": "nonpayable",
      "type": "function"
    },
    {
      "inputs": [
        {
          "internalType": "address payable",
          "name": "from",
          "type": "address"
        },
        {
          "internalType": "address payable",
          "name": "to",
          "type": "address"
        },
        {
          "internalType": "uint256",
          "name": "tokenId",
          "type": "uint256"
        }
      ],
      "name": "transferFrom",
      "outputs": [],
      "stateMutability": "payable",
      "type": "function"
    },
    {
      "inputs": [
        {
          "internalType": "address",
          "name": "to",
          "type": "address"
        },
        {
          "internalType": "uint256",
          "name": "tokenId",
          "type": "uint256"
        }
      ],
      "name": "approve",
      "outputs": [],
      "stateMutability": "nonpayable",
      "type": "function"
    }
  ],
  "bytecode": "0x60806040526000600155600060025534801561001a57600080fd5b506002600081548092919061002e90610161565b919050555060006040518060800160405280600181526020013373ffffffffffffffffffffffffffffffffffffffff16815260200160015481526020013373ffffffffffffffffffffffffffffffffffffffff1681525090806001815401808255809150506001900390600052602060002090600402016000909190919091506000820151816000015560208201518160010160006101000a81548173ffffffffffffffffffffffffffffffffffffffff021916908373ffffffffffffffffffffffffffffffffffffffff1602179055506040820151816002015560608201518160030160006101000a81548173ffffffffffffffffffffffffffffffffffffffff021916908373ffffffffffffffffffffffffffffffffffffffff16021790555050506101d9565b6000819050919050565b600061016c82610157565b91507fffffffffffffffffffffffffffffffffffffffffffffffffffffffffffffffff82141561019f5761019e6101aa565b5b600182019050919050565b7f4e487b7100000000000000000000000000000000000000000000000000000000600052601160045260246000fd5b610cc9806101e86000396000f3fe60806040526004361061003f5760003560e01c8063095ea7b3146100445780631506ea3a1461006d57806323b872dd14610096578063c9551ab5146100b2575b600080fd5b34801561005057600080fd5b5061006b60048036038101906100669190610a99565b6100f2565b005b34801561007957600080fd5b50610094600480360381019061008f9190610afe565b6102a6565b005b6100b060048036038101906100ab9190610a4a565b610462565b005b3480156100be57600080fd5b506100d960048036038101906100d49190610ad5565b6107a4565b6040516100e99493929190610b58565b60405180910390f35b60006001826101019190610b9d565b81548110610138577f4e487b7100000000000000000000000000000000000000000000000000000000600052603260045260246000fd5b906000526020600020906004020160010160009054906101000a900473ffffffffffffffffffffffffffffffffffffffff1673ffffffffffffffffffffffffffffffffffffffff163373ffffffffffffffffffffffffffffffffffffffff16146101a157600080fd5b8173ffffffffffffffffffffffffffffffffffffffff1660006001836101c79190610b9d565b815481106101fe577f4e487b7100000000000000000000000000000000000000000000000000000000600052603260045260246000fd5b906000526020600020906004020160030160009054906101000a900473ffffffffffffffffffffffffffffffffffffffff1673ffffffffffffffffffffffffffffffffffffffff161461025057600080fd5b816005600083815260200190815260200160002060006101000a81548173ffffffffffffffffffffffffffffffffffffffff021916908373ffffffffffffffffffffffffffffffffffffffff1602179055505050565b3373ffffffffffffffffffffffffffffffffffffffff1660006001846102cc9190610b9d565b81548110610303577f4e487b7100000000000000000000000000000000000000000000000000000000600052603260045260246000fd5b906000526020600020906004020160010160009054906101000a900473ffffffffffffffffffffffffffffffffffffffff1673ffffffffffffffffffffffffffffffffffffffff16141561035657600080fd5b60015481101561036557600080fd5b8060018190555080600060018461037c9190610b9d565b815481106103b3577f4e487b7100000000000000000000000000000000000000000000000000000000600052603260045260246000fd5b9060005260206000209060040201600201819055503360006001846103d89190610b9d565b8154811061040f577f4e487b7100000000000000000000000000000000000000000000000000000000600052603260045260246000fd5b906000526020600020906004020160030160006101000a81548173ffffffffffffffffffffffffffffffffffffffff021916908373ffffffffffffffffffffffffffffffffffffffff1602179055505050565b3373ffffffffffffffffffffffffffffffffffffffff166005600083815260200190815260200160002060009054906101000a900473ffffffffffffffffffffffffffffffffffffffff1673ffffffffffffffffffffffffffffffffffffffff16148061057157503373ffffffffffffffffffffffffffffffffffffffff1660006001836104f09190610b9d565b81548110610527577f4e487b7100000000000000000000000000000000000000000000000000000000600052603260045260246000fd5b906000526020600020906004020160010160009054906101000a900473ffffffffffffffffffffffffffffffffffffffff1673ffffffffffffffffffffffffffffffffffffffff16145b61057a57600080fd5b8173ffffffffffffffffffffffffffffffffffffffff166005600083815260200190815260200160002060009054906101000a900473ffffffffffffffffffffffffffffffffffffffff1673ffffffffffffffffffffffffffffffffffffffff1614801561068a57508173ffffffffffffffffffffffffffffffffffffffff1660006001836106099190610b9d565b81548110610640577f4e487b7100000000000000000000000000000000000000000000000000000000600052603260045260246000fd5b906000526020600020906004020160030160009054906101000a900473ffffffffffffffffffffffffffffffffffffffff1673ffffffffffffffffffffffffffffffffffffffff16145b61069357600080fd5b60006001826106a29190610b9d565b815481106106d9577f4e487b7100000000000000000000000000000000000000000000000000000000600052603260045260246000fd5b9060005260206000209060040201600201543410156106f757600080fd5b8273ffffffffffffffffffffffffffffffffffffffff166108fc60006001846107209190610b9d565b81548110610757577f4e487b7100000000000000000000000000000000000000000000000000000000600052603260045260246000fd5b9060005260206000209060040201600201549081150290604051600060405180830381858888f19350505050158015610794573d6000803e3d6000fd5b5061079f8282610824565b505050565b600081815481106107b457600080fd5b90600052602060002090600402016000915090508060000154908060010160009054906101000a900473ffffffffffffffffffffffffffffffffffffffff16908060020154908060030160009054906101000a900473ffffffffffffffffffffffffffffffffffffffff16905084565b8160006001836108349190610b9d565b8154811061086b577f4e487b7100000000000000000000000000000000000000000000000000000000600052603260045260246000fd5b906000526020600020906004020160010160006101000a81548173ffffffffffffffffffffffffffffffffffffffff021916908373ffffffffffffffffffffffffffffffffffffffff1602179055506000806001836108ca9190610b9d565b81548110610901577f4e487b7100000000000000000000000000000000000000000000000000000000600052603260045260246000fd5b9060005260206000209060040201600201819055508160006001836109269190610b9d565b8154811061095d577f4e487b7100000000000000000000000000000000000000000000000000000000600052603260045260246000fd5b906000526020600020906004020160030160006101000a81548173ffffffffffffffffffffffffffffffffffffffff021916908373ffffffffffffffffffffffffffffffffffffffff160217905550808273ffffffffffffffffffffffffffffffffffffffff163373ffffffffffffffffffffffffffffffffffffffff167fddf252ad1be2c89b69c2b068fc378daa952ba7f163c4a11628f55a4df523b3ef60405160405180910390a45050565b600081359050610a1a81610c4e565b92915050565b600081359050610a2f81610c65565b92915050565b600081359050610a4481610c7c565b92915050565b600080600060608486031215610a5f57600080fd5b6000610a6d86828701610a20565b9350506020610a7e86828701610a20565b9250506040610a8f86828701610a35565b9150509250925092565b60008060408385031215610aac57600080fd5b6000610aba85828601610a0b565b9250506020610acb85828601610a35565b9150509250929050565b600060208284031215610ae757600080fd5b6000610af584828501610a35565b91505092915050565b60008060408385031215610b1157600080fd5b6000610b1f85828601610a35565b9250506020610b3085828601610a35565b9150509250929050565b610b4381610be3565b82525050565b610b5281610c15565b82525050565b6000608082019050610b6d6000830187610b49565b610b7a6020830186610b3a565b610b876040830185610b49565b610b946060830184610b3a565b95945050505050565b6000610ba882610c15565b9150610bb383610c15565b925082821015610bc657610bc5610c1f565b5b828203905092915050565b6000610bdc82610bf5565b9050919050565b6000610bee82610bf5565b9050919050565b600073ffffffffffffffffffffffffffffffffffffffff82169050919050565b6000819050919050565b7f4e487b7100000000000000000000000000000000000000000000000000000000600052601160045260246000fd5b610c5781610bd1565b8114610c6257600080fd5b50565b610c6e81610be3565b8114610c7957600080fd5b50565b610c8581610c15565b8114610c9057600080fd5b5056fea264697066735822122047126358e2d229fc8e3990dce11c5ec5719b4df81c76bb57ebe1e6713baa0b8164736f6c63430008000033",
  "immutableReferences": {},
  "source": "//SPDX-License-Identifier: UNLICENSED\npragma solidity ^0.8.0;\n\nimport \"@openzeppelin/contracts/token/ERC721/ERC721.sol\";\n\ncontract auction {\n    \n    struct AuctionPrice{\n        uint ItemId;\n        address payable Owner;\n        uint BidAmount;\n        address payable HighestBidder;\n    }\n    AuctionPrice[] public AuctionList;\n    \n    uint highestbid = 0;\n    uint AuctionId = 0;\n    address KittyContract;\n    IERC721 ItemInterface;\n    \n    event Transfer(address indexed from, address indexed to, uint256 indexed tokenId);\n    \n    mapping(uint => address) Approved;\n    \n    //ItemInterface = IERC721();\n    \n    constructor() {\n        AuctionId++;\n        AuctionList.push(AuctionPrice(1,payable(msg.sender),highestbid,payable(msg.sender)));\n    }\n    \n    //Function to select the auction item and Price\n    function MakeBid (uint _id, uint _price) public {\n        require(AuctionList[_id-1].Owner != msg.sender);\n        require(_price>=highestbid);\n        highestbid = _price;\n        AuctionList[_id-1].BidAmount = _price;\n        AuctionList[_id-1].HighestBidder = payable(msg.sender);\n    }\n    \n    function _transfer(address payable _to, uint _id) internal {\n        AuctionList[_id-1].Owner = _to;\n        AuctionList[_id-1].BidAmount = 0;\n        AuctionList[_id-1].HighestBidder = _to;\n        emit Transfer(msg.sender, _to, _id);\n    }\n    \n    function transferFrom(address payable from, address payable to, uint256 tokenId) payable external{\n        require(Approved[tokenId] == msg.sender || AuctionList[tokenId-1].Owner == msg.sender);\n        require(Approved[tokenId] == to && AuctionList[tokenId-1].HighestBidder == to);\n        require(msg.value>=AuctionList[tokenId-1].BidAmount);\n        //should send ether from to address to from address\n        from.transfer(AuctionList[tokenId-1].BidAmount);\n        _transfer(to,tokenId);\n    }\n    \n    function approve(address to, uint256 tokenId) external {\n        require(msg.sender == AuctionList[tokenId-1].Owner);\n        require(AuctionList[tokenId-1].HighestBidder == to);\n        Approved[tokenId] = to;\n    }\n    \n}",
  "sourcePath": "/home/kalpita/dapps/auction/contracts/Auction.sol",
  "compiler": {
    "name": "solc",
    "version": "0.8.0+commit.c7dfd78e.Emscripten.clang"
  },
  "schemaVersion": "3.3.3",
  "updatedAt": "2021-07-08T15:05:56.950Z",
  "devdoc": {
    "kind": "dev",
    "methods": {},
    "version": 1
  },
  "userdoc": {
    "kind": "user",
    "methods": {},
    "version": 1
  }
}